:0400000076EF00F0A7
:100018001480D8CF01F0E8CF02F0E0CF03F0FACF98
:1000280004F0FBCF05F0E9CF06F0EACF07F0E1CF07
:1000380008F0E2CF09F0D9CF0AF0DACF0BF0F3CF0E
:100048000CF0F4CF0DF0F6CF0EF0F7CF0FF0F8CF9D
:1000580010F0F5CF11F0F2A421D0000ED76E000EEB
:10006800D66EF29413BE06D0135018E10A0E125C35
:10007800D8B014D0010E1224F66E050E1320F76EB8
:100088000800F5CF81FF124A132A0A0E121813101E
:10009800D8A404D0000E136E000E126E11C0F5FF26
:1000A80010C0F8FF0FC0F7FF0EC0F6FF0DC0F4FF39
:1000B8000CC0F3FF0BC0DAFF0AC0D9FF09C0E2FF8A
:1000C80008C0E1FF07C0EAFF06C0E9FF05C0FBFF63
:1000D80004C0FAFF03C0E0FF02C0E8FF01C0D8FF78
:0800E800149010009BEF02F0E0
:10050000003F065B4F666D7D077F6F00D59EF28AC8
:10051000F294D59CD596D580D582D594D59A000EE7
:10052000D76E000ED66ED58EF28EF28C0F0EC16E87
:10053000000E936EFFD7136A126A14901492000E85
:0C054000F86E050EF76E000186EF02F069
:020000040020DA
:08000000FFFFFFFFFFFFFFFF00
:020000040030CA
:0E00000000051F1FFF8085FF034003600340C3
:00000001FF
