:0400000063EF00F0BA
:100018001680D8CF01F0E8CF02F0E0CF03F0FACF96
:1000280004F0FBCF05F0E9CF06F0EACF07F0E1CF07
:1000380008F0E2CF09F0D9CF0AF0DACF0BF0F3CF0E
:100048000CF0F4CF0DF0F6CF0EF0F7CF0FF0F8CF9D
:1000580010F0F5CF11F0F2A40ED0800ED76E000E7E
:10006800D66EF294132A020E1318D8A404D0010EE7
:10007800126E000E136E11C0F5FF10C0F8FF0FC00E
:10008800F7FF0EC0F6FF0DC0F4FF0CC0F3FF0BC066
:10009800DAFF0AC0D9FF09C0E2FF08C0E1FF07C0C4
:1000A800EAFF06C0E9FF05C0FBFF04C0FAFF03C072
:1000B800E0FF02C0E8FF01C0D8FF1690100090EFE3
:0200C80004F042
:10080000003F065B4F666D7D077F6F001550D8B4C3
:1008100018D01450D8A415D082928280829415509A
:10082000010D010EF324F66E080EF420F76E080099
:10083000F5CF81FF15061550D8A412007BEC04F00B
:1008400012001550D8B418D01404D8A415D0828240
:10085000829082941550010D010EF324F66E080E5D
:10086000F420F76E0800F5CF81FF15061550D8A4C7
:1008700012007BEC04F012001550D8B41200020EE6
:100880001418D8A412008290828482921550010D0F
:10089000010EF324F66E080EF420F76E0800F5CF73
:1008A00081FF15061550D8A412007BEC04F012004D
:1008B000D59EF28AF294D59CD596D580D582D594D2
:1008C000D59A800ED76E000ED66ED58EF28EF28C33
:1008D0000F0EC16E000E936E000E946E000E146E1D
:1008E000070E156E82801204D8A4FDD706EC04F022
:1008F000000E126EF8D71450D8A405D0010E146E55
:10090000020E156E12001404D8A405D0020E146E47
:10091000040E156E1200000E146E070E156E1200F6
:10092000146A136A126A16901692000EF86E080E78
:08093000F76E000158EF04F01E
:020000040020DA
:08000000FFFFFFFFFFFFFFFF00
:020000040030CA
:0E00000000051F1FFF8185FF0FC00FE00F409E
:00000001FF
