:0400000080EF00F09D
:100018004D80D8CF01F0E8CF02F0E0CF03F0FACF5F
:1000280004F0FBCF05F0E9CF06F0EACF07F0E1CF07
:1000380008F0E2CF09F0D9CF0AF0DACF0BF0F3CF0E
:100048000CF0F4CF0DF0F6CF0EF0F7CF0FF0F8CF9D
:1000580010F0F5CF11F0F2A40ED06D0ED76E750E1C
:10006800D66EF294302A140E3018D8A404D02F2A51
:10007800000E306E2C2A9EAA1BD09EAAFED73A0EDE
:100088002724D96E000E2820DA6EAECFDFFF274A6C
:10009800282A28BE0DD0285004E1070E275CD8A0D6
:1000A80007D09E9A000E286E000E276E010E316E44
:1000B80011C0F5FF10C0F8FF0FC0F7FF0EC0F6FF24
:1000C8000DC0F4FF0CC0F3FF0BC0DAFF0AC0D9FF64
:1000D80009C0E2FF08C0E1FF07C0EAFF06C0E9FF68
:1000E80005C0FBFF04C0FAFF03C0E0FF02C0E8FF41
:0C00F80001C0D8FF4D90100096EF09F0F9
:100800000001000A006400E80310272020202020B7
:1008100020202020202020202020200054656D70E2
:10082000657261747572610044657370657274619C
:10083000646F720025642F25642F25640025643AB7
:1008400025643A256400486F72613A20004461745F
:10085000613A2000416C61726D650025642E25644B
:0708600000256420430000A5
:10086800E8D0330E126E000E136E3A0E146E000EA0
:10087800156E14501510D8A4200E166E000E186EA2
:10088800010E176EEEEC07F0340E126E000E136EAA
:100898003B0E146E000E156E14501510D8A4200EC1
:1008A800166E000E186E010E176EEEEC07F04BD0A8
:1008B800350E126E000E136E4C0E146E000E156E71
:1008C80014501510D8A4200E166E000E186E010EC6
:1008D800176EEEEC07F0360E126E000E136E4B0E0E
:1008E800146E000E156E14501510D8A4200E166E36
:1008F800000E186E010E176EEEEC07F0370E126E32
:10090800000E136E000E146E000E156E000E166E9D
:10091800000E186E010E176EEEEC07F091D02EC087
:1009280035F02DC036F02CC037F08AD049C035F0EC
:1009380048C036F044C037F083D047C035F046C0D1
:1009480036F037687DD03B50300AD8B4B1D7010AA9
:10095800D8B4E5D7030AD8B4E9D7010AD8B4EDD793
:100968006FD0000E0001676F000E666F000167BF51
:1009780008D0000167514FE1050E0001665DD8B04F
:100988004AD0330E00016625126E000E0001672161
:10099800136E3A0E000166250001646F000E000117
:1009A80067210001656F64C014F065C015F014502C
:1009B8001510D8A4200E166E000E186E010E176EB4
:1009C800EEEC07F00001664B672BD0D73C50D00FF8
:1009D8004C6E3D50D00F4B6E33D03C50D00F2E6E26
:1009E8003D50D00F2D6E3E50D00F2C6E29D03C506C
:1009F800D00F496E3D50D00F486ED00E3E24446E45
:100A0800456AFF0E45221CD03C50D00F476E3D5022
:100A1800D00F466E15D03B50300AD8B4D7D7010A4C
:100A2800D8B4DBD7030AD8B4E2D7010AD8B4ECD7D4
:100A380007D03A50310AD8B414D7030AD8B491D79A
:100A4800FAEC06F01200640E00016A6F000E000155
:100A58006B6FA8D0250E00017019D8B40AD060C0F9
:100A6800D9FF61C0DAFF70C0DFFF0001604B612B66
:100A780099D0000E00016C6F62C0F6FF63C0F7FFEB
:100A88000001624B632BF86A0800F5CF70F0000193
:100A98007051000AD8B495D0640AD8B403D00D0AAE
:100AA800D8A480D06AC0D9FF6BC0DAFFDECF6EF061
:100AB800DDCF6FF0020E00016A27000E6B230001E4
:100AC8006FAF08D0030E00016C1300016E6D6F1F2D
:100AD800D8B06F2B010E0001706F050E0001701960
:100AE800D8B419D000017051020D010EF324F66E2E
:100AF800080EF420F76EF86A000EF8220900F55087
:100B080000016E5D0900F55000016F59D8A003D0AF
:100B18000001702BE2D76CC01EF0030E1E16D8B46D
:100B280009D060C0D9FF61C0DAFF2D0EDF6E000169
:100B3800604B612B70C06DF02FD000016D51020D1C
:100B4800010EF324F66E080EF420F76EF86A000E14
:100B5800F8220900F5CF14F00A00F5CF15F06EC0A1
:100B680012F06FC013F0F7EC08F012C019F013C0C0
:100B78001AF0000E1C6E0A0E1B6EB7EC09F0195025
:100B8800300F0001706F60C0D9FF61C0DAFF70C01C
:100B9800DFFF0001604B612B00016D0700016D292B
:100BA800D8A4CBD762C0F6FF63C0F7FF0001624B41
:100BB800632BF86A0800F5CF70F000017051D8A4D3
:100BC80049D760C0D9FF61C0DAFF000EDF6E12009E
:100BD8001D681E6814501510D8A405D01D1C126E6F
:100BE8001E1C136E1200000E1A6E12C0D9FF13C01D
:100BF800DAFFDF50166E16501B6E1C6A124A132A53
:100C0800070E1A6401D028D0010E1B14166E000EB0
:100C18001C14176E010E1D14186E000E1E14196E8A
:100C28001650181A1750191A18501910D8B40CD091
:100C3800D8901E30176E1D30166E080E16181D6ED1
:100C4800840E17181E6E03D0D8901E321D321A2A31
:100C5800D8901C321B32D4D71406D8A015061450CD
:100C68001510D8A4C0D71D1E1E1E1DC01BF01EC007
:100C78001CF01BC016F01CC017F017C016F0176A3E
:100C880016501DC018F01EC019F018C019F0186AC7
:100C980018101D6E19501E6E1DC012F01EC013F0E4
:100CA8001200000E20EC09F0460E146E080E156EA8
:100CB8001FEC08F0710E0001606F000E0001616FFB
:100CC8003D0E0001626F080E0001636F2EC064F0D4
:100CD8000001656B2DC066F00001676B2CC068F0E1
:100CE8000001696B27EC05F0710E146E000E156E8D
:100CF8001FEC08F0400E20EC09F04D0E146E080EA3
:100D0800156E1FEC08F0710E0001606F000E0001F7
:100D1800616F340E0001626F080E0001636F49C0F5
:100D280064F00001656B48C066F00001676B44C061
:100D380068F045C069F027EC05F0710E146E000EDE
:100D4800156E1FEC08F01200176EF00E8116F00EEB
:100D58009316939C939A93988A9C8A9A8A98D9EC2A
:100D68000AF0300EF7EC09F0050EB8EC0AF0300E78
:100D7800F7EC09F0010EB8EC0AF0320EF7EC09F0C6
:100D880016EC0AF00009D8A4FBD716EC0AF0000903
:100D9800D8A4FBD71750F7EC09F016EC0AF00009B5
:100DA800D8A4FBD7080EF7EC09F016EC0AF00009F6
:100DB800D8A4FBD70F0EF7EC09F016EC0AF00009DF
:100DC800D8A4FBD7010EF7EC09F016EC0AF00009DD
:100DD800D8A4FBD7040EF7EC09F016EC0AF00009CA
:100DE800D8A4FBD7800E20EC09F012003A0E126E40
:100DF800000E136E000E156E050E146EECEC05F069
:100E080012C062F013C063F0000163510001606F0B
:100E180062C061F03F0E126E000E136E0001605149
:100E28001F6E206A216A1FC014F020C015F021C06F
:100E380016F0000E186E010E176EEEEC07F0400E5D
:100E4800126E000E136E000161511F6E206A216A36
:100E58001FC014F020C015F021C016F0000E186E47
:100E6800010E176EEEEC07F0030E316E12001F6EC6
:100E78001F04D8A427D0040E4A18D8A407D077ECAA
:100E88000AF0010E4A6E55EC06F012004A04D8A486
:100E980007D077EC0AF0020E4A6ECEEC08F012008A
:100EA800020E4A18D8A407D077EC0AF0030E4A6E4F
:100EB800A5EC08F0120077EC0AF0040E4A6E49EC33
:100EC80009F012004A04D8B455EC06F0020E4A188C
:100ED800D8B4CEEC08F0030E4A18D8B4A5EC08F044
:100EE800040E4A18D8A4120049EC09F0120083A293
:100EF8001BD00A0E216E220E206EA10EE82EFED700
:100F0800202EFCD7212EFAD700F0180E4718D8A4A7
:100F180003D0000E476E01D0472A000E2A6E000E3D
:100F28003BEC07F083B2FED783A412000A0E216EB1
:100F3800220E206EA10EE82EFED7202EFCD7212EE1
:100F4800FAD700F03C0E4618D8A403D0000E466E1F
:100F580001D0462A000E2A6E000E3BEC07F083A44F
:100F68001200FDD7D59EF28AF294D59CD596D580ED
:100F7800D582D594D59A800ED76E000ED66ED58EB2
:100F8800F28EF28C000E926EA9EC0AF04D0EAF6E46
:100F9800900EAB6E200EAC6E949C948E9E9A9F9A87
:100FA8009D8AF28C2F04D8A40DD0000E2F6E8AECE7
:100FB8000AF07AEC08F063EC0AF0000E3BEC07F05C
:100FC80070EC09F0020E4A18D8B47BEC07F04FEC2D
:100FD8000AF0E8D714C019F015C01AF016C01BF0B3
:100FE80012C01CF013C01DF01DD019C0F6FF1AC0A6
:100FF800F7FF1BC0F8FF1CC0D9FF1DC0DAFFF8BA05
:1010080003D00800F55005D0F6CFE9FFF7CFEAFF87
:10101800EF50DF6E010E1926000E1A22000E1B2259
:101028001C4A1D2A1706D8A018061728DEE118281A
:10103800D8B41200DAD719D016EC0AF00009D8A4EF
:10104800FBD714C0F6FF15C0F7FFF86A070EF76460
:1010580003D00800F55005D0F6CFE9FFF7CFEAFF37
:10106800EF50D8EC09F0144A152A14C0F6FF15C041
:10107800F7FFF86A070EF76403D00800F55005D0AB
:10108800F6CFE9FFF7CFEAFFEF500009D8B4120016
:10109800D3D73A0E126E000E136E000E156E050EA3
:1010A800146EECEC05F012C063F013C064F000019C
:1010B80064510001606F63C061F0000160513F1826
:1010C800D8A407D0000161514018D8A402D0010E5D
:1010D80001D0000E0001626F00016205D8A403D0A0
:1010E800040E316E1200050E316E1200180E2E1805
:1010F800D8A404D0492A000E2E6E1200020E4818F9
:10110800D8A408D01C0E4918D8A404D0482A010E27
:10111800496E12000C0E4818D8A40BD01E0E4918A0
:10112800D8A407D0444A452A010E486E010E496EDC
:1011380012001E0E4918D8A41200482A010E496E42
:101148001200030E20EC09F0280E146E080E156E1E
:101158001FEC08F0450E20EC09F0710E0001606FDD
:10116800000E0001616F5B0E0001626F080E000146
:10117800636F4CC064F00001656B4BC066F0000102
:10118800676B27EC05F0710E146E000E156E1FECE0
:1011980008F01200050E20EC09F0540E146E080E2B
:1011A800156E1FEC08F0460E20EC09F0710E0001D8
:1011B800606F000E0001616F400E0001626F080E43
:1011C8000001636F47C064F00001656B46C066F0BC
:1011D8000001676B27EC05F0710E146E000E156E9A
:1011E8001FEC08F01200000E186E000E176E145057
:1011F8001510D8B41CD0010E166E04D0D890143631
:101208001536162A15AEFAD7D89017361836145050
:10121800125C15501358D8A005D01450125E155002
:10122800135A1780D89015321432162EEDD717C0DE
:1012380012F018C013F01200166EF00E9316F00E8E
:1012480081161650136E146A138E040E156E14341C
:1012580014321332152EFBD713500F0B81128A9CB0
:101268008A9ADDEC0AF08A88DDEC0AF08A98F00E9A
:10127800811616500F0B8112DDEC0AF08A88DDEC1E
:101288000AF08A980F0E93121200030E20EC09F050
:101298001C0E146E080E156E1FEC08F0460E20EC9E
:1012A80009F0710E0001606F000E0001616F610EA0
:1012B8000001626F080E0001636F22C064F023C052
:1012C80065F024C066F027EC05F0710E146E000E70
:1012D800156E1FEC08F0120011D04DEC08F012004A
:1012E80034EC04F0120033EC0AF01200050E9AEC0C
:1012F8000AF01200150E9AEC0AF012003150000A9A
:10130800D8B41200010AD8B4E8D7030AD8B4E8D789
:10131800010AD8B4E8D7070AD8B4E8D7010AD8A48C
:101328001200E8D7A60EF66E150EF76E000EF86ED0
:1013380000EE41F010EE0CF00900F5CFEEFFE5509D
:10134800E150FAE100EE71F0100EEE6AE806FDE1F8
:1013580000EE22F01F0EEE6AE806FDE14D904D9278
:101368000001B6EF07F01B501C10D8B418D0010EBE
:101378001D6E04D0D8901B361C361D2A1CAEFAD719
:101388001B50195C1C501A58D8A004D01B50195E69
:101398001C501A5AD8901C321B321D2EF1D719C076
:1013A80019F01AC01AF01200136EF00E9316F00E10
:1013B800811613380F0B0F0B81128A8A8A9CDDEC79
:1013C8000AF08A88DDEC0AF08A98F00E811613502C
:1013D8000F0B8112DDEC0AF08A88DDEC0AF08A989E
:1013E8000F0E93121200136EF00E9316F00E811664
:1013F80013380F0B0F0B81128A9C8A9ADDEC0AF0C6
:101408008A88DDEC0AF08A98F00E811613500F0BCB
:101418008112DDEC0AF08A88DDEC0AF08A980F0E5A
:10142800931212008A8C8A9ADDEC0AF08A88DDEC25
:101438000AF081A60AD08A98DDEC0AF08A88DDECE9
:101448000AF08A988A9C010E12008A98DDEC0AF04C
:101458008A88DDEC0AF08A988A9C000E1200000E39
:10146800136E000E126E13BE06D0135011E1070E54
:10147800125CD8B00DD09EA8FED7330E1224D96EB8
:10148800000E1320DA6EDF50AD6E124A132AEBD726
:10149800000E316E120083A012000A0E216E220E79
:1014A800206EA10EE82EFED7202EFCD7212EFAD7CB
:1014B80000F0010E3BEC07F083A01200FDD7475067
:1014C8002E18D8A409D046502D18D8A405D02A50D3
:1014D800D8A402D080802B2A0E0E2B641200809094
:1014E800010E2A6E1200000E20EC09F00B0E146E8D
:1014F800080E156E1FEC08F0400E20EC09F00B0EDC
:10150800146E080E156E1FEC08F012003C0E2C1815
:10151800D8A404D02D2A000E2C6E12003C0E2D18D3
:10152800D8A412002E2A000E2D6E1200126E9EA84C
:10153800FED712C0ADFF050E1218D8A403D0020EB4
:10154800316E1200000E316E1200280EA8EC06F063
:1015580016EC0AF00009D8A4FBD7060EF7EC09F040
:101568000C0EF7EC09F01200136E0D0E126EFC0E45
:10157800E82EFED7122EFCD7132EF7D71200126EC4
:10158800C80E00D0E82EFDD7122EFAD71200126E20
:10159800030EE82EFED700F0122EFAD7120028A06C
:1015A8003BE2070A050604010201B40EC3EC0AF087
:0A15B8001200780ECBEC0AF01200CE
:020000040020DA
:08000000FFFFFFFFFFFFFFFF00
:020000040030CA
:0E00000000051F1FFF8185FF0FC00FE00F409E
:00000001FF
