:04000000E3EF04F036
:10080000003F065B4F666D7D077F6F000F0EC16E68
:10081000000E936E000E946E010E166EC80E156ECD
:100820008280000E046E640E036E15C001F016C0C7
:1008300002F0C2EC04F001C006F002C007F0000EA6
:10084000096E640E086E99EC04F0640E0626000E24
:100850000722061E071E064A072A15500624116E97
:1008600016500720126E010E1124F66E080E12208B
:10087000F76E0800F5CF81FF828215C001F016C027
:1008800002F0000E046E640E036EC2EC04F001C0B0
:1008900013F002C014F013C006F014C007F0000EED
:1008A000096E0A0E086E99EC04F006C00DF007C040
:1008B0000EF0000E046E0A0E036E13C001F014C099
:1008C00002F0C2EC04F001C006F002C007F0000E16
:1008D000096E0A0E086E99EC04F0061E071E064A01
:1008E000072A06500D24136E07500E20146E010EB9
:1008F0001324F66E080E1420F76E0800F5CF81FF62
:10090000828415C001F016C002F0000E046E0A0EBB
:10091000036EC2EC04F001C00FF002C010F0010E33
:100920000F24F66E080E1020F76E0800F5CF81FF39
:1009300077D7000E0B6E000E0A6E08500910D8B45F
:100940001CD0010E0C6E04D0D890083609360C2A43
:1009500009AEFAD7D8900A360B360850065C095013
:100960000758D8A005D00850065E0950075A0A80DB
:10097000D890093208320C2EEDD70AC006F00BC011
:1009800007F0120003500410D8B418D0010E056E01
:1009900004D0D89003360436052A04AEFAD70350A3
:1009A000015C04500258D8A004D00350015E0450EA
:1009B000025AD89004320332052EF1D701C001F05B
:1009C00002C002F01200000EF86E080EF76E000171
:0409D00006EF04F03A
:020000040020DA
:08000000FFFFFFFFFFFFFFFF00
:020000040030CA
:0E00000000051F1FFF8185FF0FC00FE00F409E
:00000001FF
